{
  "contractName": "DataRegistry",
  "abi": [
    {
      "anonymous": false,
      "inputs": [
        {
          "indexed": true,
          "internalType": "address",
          "name": "sender",
          "type": "address"
        },
        {
          "indexed": false,
          "internalType": "uint256",
          "name": "fileContentLength",
          "type": "uint256"
        }
      ],
      "name": "FileStored",
      "type": "event"
    },
    {
      "inputs": [],
      "name": "storedFileData",
      "outputs": [
        {
          "internalType": "bytes",
          "name": "",
          "type": "bytes"
        }
      ],
      "stateMutability": "view",
      "type": "function",
      "constant": true
    },
    {
      "inputs": [
        {
          "internalType": "bytes",
          "name": "fileContent",
          "type": "bytes"
        }
      ],
      "name": "storeFile",
      "outputs": [],
      "stateMutability": "nonpayable",
      "type": "function"
    },
    {
      "inputs": [],
      "name": "getStoredFileData",
      "outputs": [
        {
          "internalType": "address",
          "name": "",
          "type": "address"
        },
        {
          "internalType": "uint256",
          "name": "",
          "type": "uint256"
        }
      ],
      "stateMutability": "view",
      "type": "function",
      "constant": true
    },
    {
      "inputs": [],
      "name": "getStoredFile",
      "outputs": [
        {
          "internalType": "bytes",
          "name": "",
          "type": "bytes"
        }
      ],
      "stateMutability": "view",
      "type": "function",
      "constant": true
    }
  ],
  "bytecode": "0x608060405234801561000f575f80fd5b5061056a8061001d5f395ff3fe608060405234801561000f575f80fd5b506004361061004a575f3560e01c8063b03da1571461004e578063b4bbcafe1461006c578063c09904a914610074578063f3f0b25f146100a8575b5f80fd5b6100566100bd565b604051610063919061027c565b60405180910390f35b61005661014c565b61007c6101d7565b6040805173ffffffffffffffffffffffffffffffffffffffff9093168352602083019190915201610063565b6100bb6100b63660046102c2565b6101f0565b005b60605f80546100cb9061036d565b80601f01602080910402602001604051908101604052809291908181526020018280546100f79061036d565b80156101425780601f1061011957610100808354040283529160200191610142565b820191905f5260205f20905b81548152906001019060200180831161012557829003601f168201915b5050505050905090565b5f80546101589061036d565b80601f01602080910402602001604051908101604052809291908181526020018280546101849061036d565b80156101cf5780601f106101a6576101008083540402835291602001916101cf565b820191905f5260205f20905b8154815290600101906020018083116101b257829003601f168201915b505050505081565b5f80335f80546101e69061036d565b9050915091509091565b5f816040516020016102039291906103a5565b6040516020818303038152906040525f908161021f9190610474565b50805160405190815233907fe890abe3564f7aa7a19cb663df1b275468556288c3e9ab61e56d3c4116e1f2329060200160405180910390a250565b5f5b8381101561027457818101518382015260200161025c565b50505f910152565b602081525f825180602084015261029a81604085016020870161025a565b601f01601f19169190910160400192915050565b634e487b7160e01b5f52604160045260245ffd5b5f602082840312156102d2575f80fd5b813567ffffffffffffffff808211156102e9575f80fd5b818401915084601f8301126102fc575f80fd5b81358181111561030e5761030e6102ae565b604051601f8201601f19908116603f01168101908382118183101715610336576103366102ae565b8160405282815287602084870101111561034e575f80fd5b826020860160208301375f928101602001929092525095945050505050565b600181811c9082168061038157607f821691505b60208210810361039f57634e487b7160e01b5f52602260045260245ffd5b50919050565b5f8084546103b28161036d565b600182811680156103ca57600181146103df5761040b565b60ff198416875282151583028701945061040b565b885f526020805f205f5b858110156104025781548a8201529084019082016103e9565b50505082870194505b50505050835161041f81836020880161025a565b01949350505050565b601f82111561046f57805f5260205f20601f840160051c8101602085101561044d5750805b601f840160051c820191505b8181101561046c575f8155600101610459565b50505b505050565b815167ffffffffffffffff81111561048e5761048e6102ae565b6104a28161049c845461036d565b84610428565b602080601f8311600181146104d5575f84156104be5750858301515b5f19600386901b1c1916600185901b17855561052c565b5f85815260208120601f198616915b82811015610503578886015182559484019460019091019084016104e4565b508582101561052057878501515f19600388901b60f8161c191681555b505060018460011b0185555b50505050505056fea2646970667358221220a9eb591367c972e15ae4a6995a75eed81f7cfdfeccf589880c3c6c9fec864bba64736f6c63430008170033",
  "immutableReferences": {},
  "source": "// SPDX-License-Identifier: MIT\npragma solidity 0.8.23;\n\ncontract DataRegistry {\n\n    bytes public storedFileData;\n    event FileStored(address indexed sender, uint256 fileContentLength);\n\n    function storeFile(bytes memory fileContent) public {\n        storedFileData = abi.encodePacked(storedFileData, fileContent);\n        emit FileStored(msg.sender, fileContent.length);\n    }\n\n    function getStoredFileData() public view returns (address, uint256) {\n        return (msg.sender, storedFileData.length);\n    }\n\n    function getStoredFile() public view returns (bytes memory) {\n        return storedFileData;\n    }\n}\n",
  "sourcePath": "/home/ahmed/Desktop/cyber/idenity/contracts/DataRegistry.sol",
  "compiler": {
    "name": "solc",
    "version": "0.8.23+commit.f704f362.Emscripten.clang"
  },
  "schemaVersion": "3.4.16",
  "updatedAt": "2024-02-02T15:48:25.593Z",
  "networkType": "ethereum",
  "devdoc": {
    "kind": "dev",
    "methods": {},
    "version": 1
  },
  "userdoc": {
    "kind": "user",
    "methods": {},
    "version": 1
  }
}