{
  "contractName": "VMController",
  "abi": [
    {
      "anonymous": false,
      "inputs": [
        {
          "indexed": false,
          "internalType": "string",
          "name": "vmName",
          "type": "string"
        }
      ],
      "name": "VMCreated",
      "type": "event"
    },
    {
      "anonymous": false,
      "inputs": [
        {
          "indexed": false,
          "internalType": "string",
          "name": "vmName",
          "type": "string"
        }
      ],
      "name": "VMDestroyed",
      "type": "event"
    },
    {
      "anonymous": false,
      "inputs": [
        {
          "indexed": false,
          "internalType": "string",
          "name": "vmName",
          "type": "string"
        }
      ],
      "name": "VMSigned",
      "type": "event"
    },
    {
      "inputs": [
        {
          "internalType": "string",
          "name": "",
          "type": "string"
        }
      ],
      "name": "vmConfigs",
      "outputs": [
        {
          "internalType": "bool",
          "name": "exists",
          "type": "bool"
        },
        {
          "internalType": "string",
          "name": "vmName",
          "type": "string"
        },
        {
          "internalType": "string",
          "name": "remote",
          "type": "string"
        },
        {
          "internalType": "string",
          "name": "hook",
          "type": "string"
        },
        {
          "internalType": "string",
          "name": "ipv4",
          "type": "string"
        },
        {
          "internalType": "string",
          "name": "ipv4Gateway",
          "type": "string"
        },
        {
          "internalType": "uint256",
          "name": "port",
          "type": "uint256"
        },
        {
          "internalType": "bool",
          "name": "tls",
          "type": "bool"
        },
        {
          "internalType": "string",
          "name": "sshKey",
          "type": "string"
        },
        {
          "internalType": "bool",
          "name": "signed",
          "type": "bool"
        }
      ],
      "stateMutability": "view",
      "type": "function"
    },
    {
      "inputs": [
        {
          "internalType": "string",
          "name": "vmName",
          "type": "string"
        },
        {
          "internalType": "string",
          "name": "remote",
          "type": "string"
        },
        {
          "internalType": "string",
          "name": "hook",
          "type": "string"
        },
        {
          "internalType": "string",
          "name": "ipv4",
          "type": "string"
        },
        {
          "internalType": "string",
          "name": "ipv4Gateway",
          "type": "string"
        },
        {
          "internalType": "uint256",
          "name": "port",
          "type": "uint256"
        },
        {
          "internalType": "bool",
          "name": "tls",
          "type": "bool"
        },
        {
          "internalType": "string",
          "name": "sshKey",
          "type": "string"
        }
      ],
      "name": "createVM",
      "outputs": [],
      "stateMutability": "nonpayable",
      "type": "function"
    },
    {
      "inputs": [
        {
          "internalType": "string",
          "name": "vmName",
          "type": "string"
        }
      ],
      "name": "destroyVM",
      "outputs": [],
      "stateMutability": "nonpayable",
      "type": "function"
    },
    {
      "inputs": [
        {
          "internalType": "string",
          "name": "vmName",
          "type": "string"
        }
      ],
      "name": "signVM",
      "outputs": [],
      "stateMutability": "nonpayable",
      "type": "function"
    },
    {
      "inputs": [
        {
          "internalType": "string",
          "name": "vmName",
          "type": "string"
        }
      ],
      "name": "isVMSigned",
      "outputs": [
        {
          "internalType": "bool",
          "name": "",
          "type": "bool"
        }
      ],
      "stateMutability": "view",
      "type": "function"
    }
  ],
  "bytecode": "0x608060405234801561000f575f80fd5b50610d968061001d5f395ff3fe608060405234801561000f575f80fd5b5060043610610064575f3560e01c80637d02a6101161004d5780637d02a6101461009057806390d7edce146100a3578063d5c102c3146100cb575f80fd5b80635c3746a0146100685780636e8592961461007d575b5f80fd5b61007b610076366004610998565b6100f4565b005b61007b61008b3660046109e6565b610238565b61007b61009e366004610998565b61041f565b6100b66100b1366004610998565b6104f3565b60405190151581526020015b60405180910390f35b6100de6100d9366004610998565b61051f565b6040516100c29a99989796959493929190610b39565b5f816040516101039190610be8565b9081526040519081900360200190205460ff166101675760405162461bcd60e51b815260206004820152601160248201527f564d20646f6573206e6f7420657869737400000000000000000000000000000060448201526064015b60405180910390fd5b5f816040516101769190610be8565b908152604051908190036020019020805460ff191681555f61019b60018301826108a9565b6101a8600283015f6108a9565b6101b5600383015f6108a9565b6101c2600483015f6108a9565b6101cf600583015f6108a9565b5f6006830181905560078301805460ff191690556101f19060088401906108a9565b50600901805460ff191690556040517fc63bdce6a849b2cb816be8fba18c0611fcf5b62bcc82a618138cc5963be997489061022d908390610c03565b60405180910390a150565b5f886040516102479190610be8565b9081526040519081900360200190205460ff16156102a75760405162461bcd60e51b815260206004820152601160248201527f564d20616c726561647920657869737473000000000000000000000000000000604482015260640161015e565b60405180610140016040528060011515815260200189815260200188815260200187815260200186815260200185815260200184815260200183151581526020018281526020015f15158152505f896040516103039190610be8565b908152604051602091819003820190208251815460ff19169015151781559082015160018201906103349082610ca0565b50604082015160028201906103499082610ca0565b506060820151600382019061035e9082610ca0565b50608082015160048201906103739082610ca0565b5060a082015160058201906103889082610ca0565b5060c0820151600682015560e082015160078201805460ff191691151591909117905561010082015160088201906103c09082610ca0565b5061012091909101516009909101805460ff19169115159190911790556040517fd78b712ff06d7b9861319aa781b9755bc615505a07a3c704e4e40fc803a86a219061040d908a90610c03565b60405180910390a15050505050505050565b5f8160405161042e9190610be8565b9081526040519081900360200190206009015460ff16156104915760405162461bcd60e51b815260206004820152601160248201527f564d20616c7265616479207369676e6564000000000000000000000000000000604482015260640161015e565b60015f826040516104a29190610be8565b908152604051908190036020018120600901805492151560ff19909316929092179091557f238e23e1e4fd043dd05efdb4232c1c78bfe76d030730bc3e2cc9c5ff238fb37a9061022d908390610c03565b5f80826040516105039190610be8565b9081526040519081900360200190206009015460ff1692915050565b80516020818301810180515f825292820191909301209152805460018201805460ff909216929161054f90610c1c565b80601f016020809104026020016040519081016040528092919081815260200182805461057b90610c1c565b80156105c65780601f1061059d576101008083540402835291602001916105c6565b820191905f5260205f20905b8154815290600101906020018083116105a957829003601f168201915b5050505050908060020180546105db90610c1c565b80601f016020809104026020016040519081016040528092919081815260200182805461060790610c1c565b80156106525780601f1061062957610100808354040283529160200191610652565b820191905f5260205f20905b81548152906001019060200180831161063557829003601f168201915b50505050509080600301805461066790610c1c565b80601f016020809104026020016040519081016040528092919081815260200182805461069390610c1c565b80156106de5780601f106106b5576101008083540402835291602001916106de565b820191905f5260205f20905b8154815290600101906020018083116106c157829003601f168201915b5050505050908060040180546106f390610c1c565b80601f016020809104026020016040519081016040528092919081815260200182805461071f90610c1c565b801561076a5780601f106107415761010080835404028352916020019161076a565b820191905f5260205f20905b81548152906001019060200180831161074d57829003601f168201915b50505050509080600501805461077f90610c1c565b80601f01602080910402602001604051908101604052809291908181526020018280546107ab90610c1c565b80156107f65780601f106107cd576101008083540402835291602001916107f6565b820191905f5260205f20905b8154815290600101906020018083116107d957829003601f168201915b50505050600683015460078401546008850180549495929460ff90921693509061081f90610c1c565b80601f016020809104026020016040519081016040528092919081815260200182805461084b90610c1c565b80156108965780601f1061086d57610100808354040283529160200191610896565b820191905f5260205f20905b81548152906001019060200180831161087957829003601f168201915b5050506009909301549192505060ff168a565b5080546108b590610c1c565b5f825580601f106108c4575050565b601f0160209004905f5260205f20908101906108e091906108e3565b50565b5b808211156108f7575f81556001016108e4565b5090565b634e487b7160e01b5f52604160045260245ffd5b5f82601f83011261091e575f80fd5b813567ffffffffffffffff80821115610939576109396108fb565b604051601f8301601f19908116603f01168101908282118183101715610961576109616108fb565b81604052838152866020858801011115610979575f80fd5b836020870160208301375f602085830101528094505050505092915050565b5f602082840312156109a8575f80fd5b813567ffffffffffffffff8111156109be575f80fd5b6109ca8482850161090f565b949350505050565b803580151581146109e1575f80fd5b919050565b5f805f805f805f80610100898b0312156109fe575f80fd5b883567ffffffffffffffff80821115610a15575f80fd5b610a218c838d0161090f565b995060208b0135915080821115610a36575f80fd5b610a428c838d0161090f565b985060408b0135915080821115610a57575f80fd5b610a638c838d0161090f565b975060608b0135915080821115610a78575f80fd5b610a848c838d0161090f565b965060808b0135915080821115610a99575f80fd5b610aa58c838d0161090f565b955060a08b01359450610aba60c08c016109d2565b935060e08b0135915080821115610acf575f80fd5b50610adc8b828c0161090f565b9150509295985092959890939650565b5f5b83811015610b06578181015183820152602001610aee565b50505f910152565b5f8151808452610b25816020860160208601610aec565b601f01601f19169290920160200192915050565b5f6101408c15158352806020840152610b548184018d610b0e565b90508281036040840152610b68818c610b0e565b90508281036060840152610b7c818b610b0e565b90508281036080840152610b90818a610b0e565b905082810360a0840152610ba48189610b0e565b90508660c084015285151560e0840152828103610100840152610bc78186610b0e565b915050610bd961012083018415159052565b9b9a5050505050505050505050565b5f8251610bf9818460208701610aec565b9190910192915050565b602081525f610c156020830184610b0e565b9392505050565b600181811c90821680610c3057607f821691505b602082108103610c4e57634e487b7160e01b5f52602260045260245ffd5b50919050565b601f821115610c9b57805f5260205f20601f840160051c81016020851015610c795750805b601f840160051c820191505b81811015610c98575f8155600101610c85565b50505b505050565b815167ffffffffffffffff811115610cba57610cba6108fb565b610cce81610cc88454610c1c565b84610c54565b602080601f831160018114610d01575f8415610cea5750858301515b5f19600386901b1c1916600185901b178555610d58565b5f85815260208120601f198616915b82811015610d2f57888601518255948401946001909101908401610d10565b5085821015610d4c57878501515f19600388901b60f8161c191681555b505060018460011b0185555b50505050505056fea26469706673582212209d04b7345223f900daa977bb5fa1f17b5975d2784ba6a3889bb08610e34b37c464736f6c63430008170033",
  "immutableReferences": {},
  "source": "// SPDX-License-Identifier: MIT\npragma solidity 0.8.23;\n\ncontract VMController {\n\n    struct VMConfig {\n        bool exists;\n        string vmName;\n        string remote;\n        string hook;\n        string ipv4;\n        string ipv4Gateway;\n        uint256 port;\n        bool tls;\n        string sshKey;\n        bool signed;\n    }\n\n    mapping(string => VMConfig) public vmConfigs;\n\n    event VMCreated(string vmName);\n    event VMDestroyed(string vmName);\n    event VMSigned(string vmName);\n\n    function createVM(\n        string memory vmName,\n        string memory remote,\n        string memory hook,\n        string memory ipv4,\n        string memory ipv4Gateway,\n        uint256 port,\n        bool tls,\n        string memory sshKey\n    ) external {\n        require(!vmConfigs[vmName].exists, \"VM already exists\");\n\n        vmConfigs[vmName] = VMConfig(\n            true,\n            vmName,\n            remote,\n            hook,\n            ipv4,\n            ipv4Gateway,\n            port,\n            tls,\n            sshKey,\n            false\n        );\n\n        emit VMCreated(vmName);\n    }\n\n    function destroyVM(string memory vmName) external {\n        require(vmConfigs[vmName].exists, \"VM does not exist\");\n\n        delete vmConfigs[vmName];\n\n        emit VMDestroyed(vmName);\n    }\n\n    function signVM(string memory vmName) external {\n        require(!vmConfigs[vmName].signed, \"VM already signed\");\n\n        vmConfigs[vmName].signed = true;\n\n        emit VMSigned(vmName);\n    }\n\n    function isVMSigned(string memory vmName) external view returns (bool) {\n        return vmConfigs[vmName].signed;\n    }\n}\n",
  "sourcePath": "/home/ahmed/Desktop/cyber/idenity/contracts/VmController.sol",
  "compiler": {
    "name": "solc",
    "version": "0.8.23+commit.f704f362.Emscripten.clang"
  },
  "schemaVersion": "3.4.16",
  "updatedAt": "2024-02-02T15:45:09.707Z",
  "devdoc": {
    "kind": "dev",
    "methods": {},
    "version": 1
  },
  "userdoc": {
    "kind": "user",
    "methods": {},
    "version": 1
  }
}